{
  "_format": "hh-sol-artifact-1",
  "contractName": "AgentWallet",
  "sourceName": "contracts/AgentWallet.sol",
  "abi": [
    {
      "inputs": [
        {
          "internalType": "address",
          "name": "_factory",
          "type": "address"
        },
        {
          "internalType": "uint256",
          "name": "_agentId",
          "type": "uint256"
        },
        {
          "internalType": "string",
          "name": "_name",
          "type": "string"
        },
        {
          "internalType": "string",
          "name": "_bio",
          "type": "string"
        },
        {
          "internalType": "string",
          "name": "_character",
          "type": "string"
        }
      ],
      "stateMutability": "nonpayable",
      "type": "constructor"
    },
    {
      "inputs": [],
      "name": "agentId",
      "outputs": [
        {
          "internalType": "uint256",
          "name": "",
          "type": "uint256"
        }
      ],
      "stateMutability": "view",
      "type": "function"
    },
    {
      "inputs": [],
      "name": "bio",
      "outputs": [
        {
          "internalType": "string",
          "name": "",
          "type": "string"
        }
      ],
      "stateMutability": "view",
      "type": "function"
    },
    {
      "inputs": [],
      "name": "character",
      "outputs": [
        {
          "internalType": "string",
          "name": "",
          "type": "string"
        }
      ],
      "stateMutability": "view",
      "type": "function"
    },
    {
      "inputs": [],
      "name": "factory",
      "outputs": [
        {
          "internalType": "address",
          "name": "",
          "type": "address"
        }
      ],
      "stateMutability": "view",
      "type": "function"
    },
    {
      "inputs": [],
      "name": "name",
      "outputs": [
        {
          "internalType": "string",
          "name": "",
          "type": "string"
        }
      ],
      "stateMutability": "view",
      "type": "function"
    },
    {
      "inputs": [
        {
          "internalType": "string",
          "name": "_bio",
          "type": "string"
        }
      ],
      "name": "setBio",
      "outputs": [],
      "stateMutability": "nonpayable",
      "type": "function"
    },
    {
      "inputs": [
        {
          "internalType": "string",
          "name": "_character",
          "type": "string"
        }
      ],
      "name": "setCharacter",
      "outputs": [],
      "stateMutability": "nonpayable",
      "type": "function"
    },
    {
      "inputs": [
        {
          "internalType": "bool",
          "name": "locked",
          "type": "bool"
        }
      ],
      "name": "setTokensLocked",
      "outputs": [],
      "stateMutability": "nonpayable",
      "type": "function"
    },
    {
      "inputs": [
        {
          "internalType": "string",
          "name": "_walletId",
          "type": "string"
        }
      ],
      "name": "setWalletId",
      "outputs": [],
      "stateMutability": "nonpayable",
      "type": "function"
    },
    {
      "inputs": [],
      "name": "tokensLocked",
      "outputs": [
        {
          "internalType": "bool",
          "name": "",
          "type": "bool"
        }
      ],
      "stateMutability": "view",
      "type": "function"
    },
    {
      "inputs": [],
      "name": "walletId",
      "outputs": [
        {
          "internalType": "string",
          "name": "",
          "type": "string"
        }
      ],
      "stateMutability": "view",
      "type": "function"
    }
  ],
  "bytecode": "0x608060405234801561001057600080fd5b506040516109d83803806109d883398101604081905261002f91610139565b600380546001600160a01b0319166001600160a01b0387161790556004849055600061005b8482610281565b5060016100688382610281565b5060026100758282610281565b50505050505061033f565b634e487b7160e01b600052604160045260246000fd5b600082601f8301126100a757600080fd5b81516001600160401b038111156100c0576100c0610080565b604051601f8201601f19908116603f011681016001600160401b03811182821017156100ee576100ee610080565b60405281815283820160200185101561010657600080fd5b60005b8281101561012557602081860181015183830182015201610109565b506000918101602001919091529392505050565b600080600080600060a0868803121561015157600080fd5b85516001600160a01b038116811461016857600080fd5b6020870151604088015191965094506001600160401b0381111561018b57600080fd5b61019788828901610096565b606088015190945090506001600160401b038111156101b557600080fd5b6101c188828901610096565b608088015190935090506001600160401b038111156101df57600080fd5b6101eb88828901610096565b9150509295509295909350565b600181811c9082168061020c57607f821691505b60208210810361022c57634e487b7160e01b600052602260045260246000fd5b50919050565b601f82111561027c57806000526020600020601f840160051c810160208510156102595750805b601f840160051c820191505b818110156102795760008155600101610265565b50505b505050565b81516001600160401b0381111561029a5761029a610080565b6102ae816102a884546101f8565b84610232565b6020601f8211600181146102e257600083156102ca5750848201515b600019600385901b1c1916600184901b178455610279565b600084815260208120601f198516915b8281101561031257878501518255602094850194600190920191016102f2565b50848210156103305786840151600019600387901b60f8161c191681555b50505050600190811b01905550565b61068a8061034e6000396000f3fe608060405234801561001057600080fd5b50600436106100c95760003560e01c8063a1feba4211610081578063e84f43b71161005b578063e84f43b71461017f578063f516b42214610196578063fb7e06d81461019e57600080fd5b8063a1feba421461012f578063c162ba2f1461014c578063c45a01551461015457600080fd5b806340a915a5116100b257806340a915a514610101578063470869c1146101145780634d2e03a01461012757600080fd5b806306fdde03146100ce5780630cac6442146100ec575b600080fd5b6100d66101b1565b6040516100e391906103c6565b60405180910390f35b6100ff6100fa36600461042a565b61023f565b005b6100ff61010f3660046104e3565b61029c565b6100ff61012236600461042a565b6102f7565b6100d661034b565b60055461013c9060ff1681565b60405190151581526020016100e3565b6100d6610358565b600354610167906001600160a01b031681565b6040516001600160a01b0390911681526020016100e3565b61018860045481565b6040519081526020016100e3565b6100d6610365565b6100ff6101ac36600461042a565b610372565b600080546101be9061050c565b80601f01602080910402602001604051908101604052809291908181526020018280546101ea9061050c565b80156102375780601f1061020c57610100808354040283529160200191610237565b820191906000526020600020905b81548152906001019060200180831161021a57829003601f168201915b505050505081565b6003546001600160a01b0316331461028c5760405162461bcd60e51b815260206004820152600b60248201526a4e6f7420666163746f727960a81b60448201526064015b60405180910390fd5b60026102988282610595565b5050565b6003546001600160a01b031633146102e45760405162461bcd60e51b815260206004820152600b60248201526a4e6f7420666163746f727960a81b6044820152606401610283565b6005805460ff1916911515919091179055565b6003546001600160a01b0316331461033f5760405162461bcd60e51b815260206004820152600b60248201526a4e6f7420666163746f727960a81b6044820152606401610283565b60066102988282610595565b600280546101be9061050c565b600680546101be9061050c565b600180546101be9061050c565b6003546001600160a01b031633146103ba5760405162461bcd60e51b815260206004820152600b60248201526a4e6f7420666163746f727960a81b6044820152606401610283565b60016102988282610595565b602081526000825180602084015260005b818110156103f457602081860181015160408684010152016103d7565b506000604082850101526040601f19601f83011684010191505092915050565b634e487b7160e01b600052604160045260246000fd5b60006020828403121561043c57600080fd5b813567ffffffffffffffff81111561045357600080fd5b8201601f8101841361046457600080fd5b803567ffffffffffffffff81111561047e5761047e610414565b604051601f8201601f19908116603f0116810167ffffffffffffffff811182821017156104ad576104ad610414565b6040528181528282016020018610156104c557600080fd5b81602084016020830137600091810160200191909152949350505050565b6000602082840312156104f557600080fd5b8135801515811461050557600080fd5b9392505050565b600181811c9082168061052057607f821691505b60208210810361054057634e487b7160e01b600052602260045260246000fd5b50919050565b601f82111561059057806000526020600020601f840160051c8101602085101561056d5750805b601f840160051c820191505b8181101561058d5760008155600101610579565b50505b505050565b815167ffffffffffffffff8111156105af576105af610414565b6105c3816105bd845461050c565b84610546565b6020601f8211600181146105f757600083156105df5750848201515b600019600385901b1c1916600184901b17845561058d565b600084815260208120601f198516915b828110156106275787850151825560209485019460019092019101610607565b50848210156106455786840151600019600387901b60f8161c191681555b50505050600190811b0190555056fea2646970667358221220f5288ac76e36d81a975062121ab76c18a83a987bf4b8ea00d01b2fde2bef132864736f6c634300081a0033",
  "linkReferences": {},
  "deployedLinkReferences": {}
}